:040000030000042DC8
:020000040000FA
:10000000281000202D0400001F1E0000190400000D
:1000100000000000000000000000000000000000E0
:1000200000000000000000000000000015050000B6
:1000300000000000000000009D040000000000001F
:100040006D0600006D0600006D0600006D060000E4
:100050006D0600006D0600006D0600006D060000D4
:100060006D0600006D0600006D0600006D060000C4
:100070006D0600006D0600006D0600006D060000B4
:100080006D0600006D0600006D06000002B47146AA
:1000900049084900095C49008E4402BC7047C046CB
:1000A000002934D00123002210B488422CD301242B
:1000B0002407A14204D2814202D209011B01F8E7C0
:1000C000E400A14204D2814202D249005B00F8E779
:1000D000884201D3401A1A434C08A04202D3001BA5
:1000E0005C0822438C08A04202D3001B9C082243D8
:1000F000CC08A04202D3001BDC082243002803D016
:100100001B0901D00909E3E7100010BC704701B5D5
:10011000002000F00BF802BD0029F8D003B5FFF76E
:10012000C1FF0EBC4243891A1847C0467047C046FB
:100130001C2101231B04984201D3000C10391B0A17
:10014000984201D3000A08391B09984201D30009DB
:10015000043902A2105C40187047C0460403020232
:10016000010101010000000000000000F8B5174D7A
:10017000280001F00EFF041E26D0296914480A68E1
:10018000AB6802400A60A0220F2128001B681203FE
:100190009847002818DB802601273602AB6831001B
:1001A00028005B69984700280EDB7C40E4B20949CF
:1001B000002C00D10849094801F03AFBFA2000213F
:1001C000800001F02BF8E9E70020F8BDC82200000C
:1001D000FF7FFFFF882300008B2300008F23000098
:1001E00010B5024B1B68984710BDC04600000020A8
:1001F000014B18607047C0460000002030B585B044
:1002000004000D0010220021684601F0A1FF6A469B
:1002100002239370044B2A0021006846019301F0E9
:1002200017FB05B030BDC046E1010000F7B5040082
:100230000D001E00019201F029F8030002F022F8DF
:10024000054F32003B5001992800A04702F01AF8F0
:10025000385800F007F9C0460800000070B50500E6
:100260000C1E13D08B684A680F48096801F0C1FD65
:100270000E4863692269E16801F0BBFD0C48E16941
:1002800001F0B7FD0B48A16901F0B3FD012D05D1C7
:10029000EFF305810848103901F0ABFD280021007B
:1002A00000F05AFC70BDC0469E230000CE23000023
:1002B000FE2300000E2400003D24000030BFFDE7B7
:1002C000F7B50B4D0B4F2A00EE198C1B01900A4914
:1002D000200001F034FF60193A00002101F038FFDE
:1002E0003000019B083C943308301C60FEBDC046C2
:1002F000000000000400000040230000054B5A6984
:100300009B689A4205D08023034A5B0551680B43E2
:1003100053607047F402002000ED00E0F0B52D4B73
:1003200004005F6889B0FD05ED0D62B6BFF36F8F05
:10033000130EFF2B06D1F33B1340082B33D1264875
:1003400001F057FD00263400032D32D1234801F07F
:1003500050FDA369224A934202D3224A934205D315
:10036000214A934230D3214A93422DD2023B1A882C
:100370001F4B9A4228D11F48216801F03AFD256899
:1003800020222100684601F0DAFE079B002E1DD0D6
:10039000DA0502D1184A1343079369462800FFF78C
:1003A0005DFF09B0F0BD01261207CDD50C00002677
:1003B000CAE7F8235B0011491F4200D010492A0008
:1003C0001048103A01F015FD0025D9E75B0A5B02E1
:1003D000E2E7C04600ED00E07F240000AB2400000F
:1003E0008C0000009022000000000020000000208F
:1003F00002DF0000C3240000FF01000051240000C0
:1004000066240000E02400000821024A53698B435F
:100410005361704700ED00E0EFF30880EFF30981CE
:1004200001B57246FFF77AFF01BDC0460A4880F366
:10043000088801F0EAFC72B608480949401880F3C0
:100440000988EFF314800221084380F31488BFF376
:100450006F8F01F0F5FC0000281000202803002019
:100460000008000010B50A4B9B6883420DD1EFF3E2
:100470000583002B09D08022064B520559680A4398
:100480005A605A6A04490A405A6200F005FF10BDDA
:10049000F402002000ED00E0FF7FFFFF16498A68AC
:1004A00016481044EFF3098CF0C043464C465546BD
:1004B0005E466746F8C072B6114F124E4A698A60AE
:1004C0003E60114C14192068104C2060104C141917
:1004D000206800232360002800D162B6074C101961
:1004E0001030F8C89846A146AA46B346BC46243800
:1004F000F0C88CF309887047F40200203000000037
:1005000004ED00E00000000894000000D00200208C
:100510009800000004207146014202D0EFF30980E8
:1005200001D1EFF308808169023909780229FFD0EF
:1005300001B5724601F06DFC01BDC04610B5FF2447
:1005400003220B0021000240D20091409B01234076
:10055000C943934000280ADBC0240B4A800880006E
:100560008018A40002590A401343035110BD0F2202
:1005700010400838054A800880008018C269114080
:100580001943C161F2E7C04600E100E000ED00E080
:1005900043B2000605D41F221A4001239340014AAA
:1005A0001360704700E100E0FF22044B9343044ACC
:1005B0009360BFF34F8FBFF36F8F70470000000051
:1005C00000ED00E010B5203A1360029B0124536057
:1005D000039B07499360049BA143D36080235B0482
:1005E000D3610023916102659830036010BDC0465D
:1005F0002D02000070B50C4B1500986094300B4B29
:1006000002680E001A602C1C86F309880020044B37
:100610009847201C002100220023024C20470000A4
:100620005D1E00002D020000F4020020D002002018
:100630001022014B1A61704700ED00E0F0B5C024B4
:1006400000220326FF25A40010002F003040C00028
:100650008740054993089B005B1819590132B9433B
:100660001951132AF0D1F0BD00E100E010B5EFF30D
:100670000583054A103BDB00D11849689858884724
:10068000FFF73CFE10BDC0463400002010B5024B01
:100690001B689847002010BDD4020020034B044A79
:1006A0001860022391780B4393707047D4020020A6
:1006B00004000020072310B50449054A9943054862
:1006C000521A01F05AFB002010BDC0462F10002026
:1006D00000900020D802002010B5084801F059FC15
:1006E000002808D0064C2000FFF7D8FF2000FFF7B5
:1006F0007FFD002010BD13204042FBE7E8220000F0
:100700000507000070B50400074D0A2804D1AB6846
:100710000D2128005B689847AB6828005B68E1B250
:100720009847200070BDC046E8220000024B002020
:100730001B680B607047C04600370240034B1868C7
:100740004240114041401960002070470032024091
:10075000014B00201960704710320240014B00200D
:100760001960704720320240014B00201960704729
:1007700030320240802030B5C00382422FD0194869
:10078000194D0C18A400206828408025AD03AA420A
:1007900006D101238B40154A20601360002030BD34
:1007A000A0256D04AA42F9D18022D204934211D02F
:1007B000C022D204934210D08022920493420ED1E0
:1007C00080235B02184301238B40094A2060136099
:1007D000084AE2E780239B02F4E7C023FBE7862078
:1007E0004042DCE7400C0010FFFFFCFF7430024089
:1007F000643002406C300240014B18687047C046BC
:100800004C300240012310B5064A052011680B4305
:1008100013600022110001F008FB0520FFF7B8FE6D
:10082000002010BD14000240184B10B5C8180C0071
:100830008000D3061DD49306DB0F5B03910704D51C
:10084000510719D5802189040B43D10302D5C0215A
:10085000C9050B4301210360A1400D48930312D544
:1008600013030CD50B4B196003680B430360002086
:1008700010BD8023DB01E1E78021C904E4E75203D6
:10088000F2D5054BEFE703688B43EFE7400C001010
:1008900000350240103202402032024070B50D4A4D
:1008A000036916680C4A050016605968002902D0D1
:1008B0000C68002900D170BD8B681A0032403342A9
:1008C00002D028004B689847231E00D023682100DF
:1008D0001C00EEE74C300240643002400C2310B59F
:1008E00059434118884201D1002010BD0368044AD1
:1008F00084689B1842689B0022431A600C30F1E721
:10090000400C0010F8B50B7902000C00042B4DD8F8
:1009100027496079C95C032848D8FFF7B7FB440230
:10092000440A0B00A079032840D8FFF7AFFB070566
:100930002F3108230B43F5E720210B43E679012EE5
:1009400003D0022E2FD0002E30D155681769696868
:100950002268286801F003FB2B68002E1AD0802241
:10096000196B12020A431A6380232A68DB01116B98
:100970000B431363286800F0E7F8102300202A686F
:10098000D16A0B43D36206CC06C7F8BD4021D4E739
:100990006021D2E71A6B07490A401A632A680649A0
:1009A000136B0B40E5E786204042EEE71620FBE79D
:1009B00002250000FF7FFFFFFFBFFFFF042337B5C5
:1009C00004000D4A4068116825690B43136000213B
:1009D000806801AA01F080FA00280BDB019B00224D
:1009E00019791868FFF77AFF002803DB2900200037
:1009F000FFF788FF3EBDC0461400024010B50F4B04
:100A00000F4A1B680024136001221B200D490A6055
:100A10000D490C600D490A600D4908600D490B38FD
:100A20000A600D4A03219B180C4A1360220001F052
:100A3000FCF91020FFF7ACFD200010BD042102409E
:100A4000F0020020542002400C21024060200240AD
:100A50004454024058200240FFFFBFFF20210240C3
:100A600070B5094B094D1C682868A04208D8201AA7
:100A7000FA218900FFF714FB00F040FE2C6070BDE6
:100A8000631E181AF4E7C04604210240F002002059
:100A90000300421C0BD0FA2080005843044A054B47
:100AA0001268984200D91800034B801818607047EC
:100AB00004210240FFFFBFFF2021024010B5074B79
:100AC000074A1B681068984205D8FA21181A89004D
:100AD000FFF7E6FA10BD013BF7E7C04604210240EC
:100AE000F00200209C22CC23D2059B00D35C032B78
:100AF0000BD9074B1B78DBB2FC2B05D9054B064AFB
:100B00001A60064B064A1A607047064BF2E7C04669
:100B10002F03004E18110040E3887F091C1100408C
:100B2000E3387F49AF03004E082382691A42FCD1A3
:100B30001022C36A9343C362036B024A13400363E8
:100B40007047C046FEFCFFFF026B024B134303637A
:100B50007047C0460103000070B5EFF3108572B610
:100B6000064B9C6801F026FA002D02D162B6BFF355
:100B70006F8F2000FFF776FC70BDC046F4020020A6
:100B8000F8B501270A4E83009D590130840033597E
:100B9000AB4200D8F8BD6868002806D0037F3B420E
:100BA00001D101F00AFA0835F1E72B689847FAE716
:100BB00070230000012270B5234B032086B01A7009
:100BC000FFF7DEFF00F01AFE0420FFF7D9FF1F4CED
:100BD00026001F4DAC420ED300F05AFAAE4220D38D
:100BE00000F066FAFFF7C2FA01211A4A137B8B4321
:100BF000137306B070BD636A0593236A0493E369B7
:100C00000393A36902936369019323690093E368E3
:100C1000A2686168206800F0CBF823685C65303416
:100C2000D7E7B26AF36A511C01D1591C05D01100F3
:100C30003068194303D100F009FB3036CEE706498E
:100C4000183000F0CBFCF8E7240300200823000054
:100C50000823000070010020CF20000010B5034AD7
:100C600003480021121A01F0C0F910BD280300202A
:100C7000D000002070B5A0260125040046430102E3
:100C8000114880220918002086B004950E3503957E
:100C9000053565430D4B0590029001900C48F61800
:100CA0002D180C4B30000095520000F081F8042202
:100CB000737B2C74934373730134074BE402E41881
:100CC000EE606C6006B070BD280B0020D0000020E4
:100CD000F40200203520000028030020F0B5002099
:100CE00087B0FFF74DFF204B83F308881F49204B47
:100CF0000A6A00251A40C0231B0413430B62FFF746
:100D000083FBFFF795FC1B4800F0AEF801F040F9BB
:100D10000120FFF735FF0220FFF732FF00F0F8F95E
:100D2000154C164B80225C61154B164E0593012322
:100D300015490493D20033002000039502950195D4
:100D4000009500F035F804220700637B20009343F0
:100D5000637301F089F92800FFF78CFF3200390036
:100D60002000FFF747FCC046280B002000ED00E004
:100D7000FFFF00FF1002002070010020F40200209D
:100D800015250000B50B0000280C0020002010B530
:100D9000054C064B9C4200D310BD200001F02DF9FC
:100DA0000028F9DB1C34F4E7D0000020D00000203C
:100DB000F0B589B00793030058338365C365129B70
:100DC000072703730423002504000732BA43437343
:100DD000D219119BBA4383738B180E0085601900DA
:100DE000C5738561C56105920693FFF769FA230013
:100DF000059AC0190833DE67B84380331A6058601B
:100E0000069B31001F1A109B3A0002930F9B200093
:100E100001930E9B0093079BFFF7D4FB23006C33D9
:100E200065651D70079B23670E9B63670F9BA36718
:100E3000109BE367EFF3108272B60A4B211D186A0C
:100E40001C62C867AA4202D162B6BFF36F8F9B686B
:100E5000002B01D090331B6838009034236009B018
:100E6000F0BDC046F402002002230200FF3383815C
:100E700000230832D367803213609360014B98607F
:100E80007047C046F40200200A4A9368190098315E
:100E900008600B219C3349421960802306495B0599
:100EA000486803434B6062B6BFF36F8F93689C330F
:100EB00018687047F402002000ED00E00D2370B5C3
:100EC000C356427B002B38DBD30636D180235B42EE
:100ED00013431B4C4373A3691A49E2698B4207D140
:100EE000016042601060E06111E09A42F8D01B6836
:100EF000002BF5D00E250E2645579E57B542F4D04F
:100F0000AE42F2DD5A680360426010605860A56925
:100F10008D4201D0002D00D1E568A3685A7BD2062E
:100F200005D1DA897F2A02D9AA69002A06D0AB4204
:100F300002D0280000F07CFA656170BD6361FCE7B7
:100F4000F40200200C0300200D2270B5825605002B
:100F5000437B002A04DA7F221340437301F071F8C7
:100F60000D4E0E4AB469B368944201D0002C00D1F2
:100F7000F468AB4208D05A7BD20605D1DA897F2AC1
:100F800002D9A269002A05D0A34202D0200000F0B5
:100F90004FFA2300736170BDF40200200C0300209F
:100FA0000D2270B582560400437B002A04DA7F22AA
:100FB0001340437301F045F88023627B5B42134387
:100FC0001B4D6373AB691B49EA698B4207D12160F2
:100FD00062601460EC6111E09A42F8D01B68002B4B
:100FE000F5D00E200E2620569E57B042F4D08642F1
:100FF000F2DD5A682360626014605C60AE69AB68C1
:101000008E4201D0002E00D1EE68A34208D05A7B58
:10101000D20605D1DA897F2A02D9B269002A05D021
:10102000B34202D0300000F003FA33006B6170BDB0
:10103000F40200200C03002010B500290AD1EFF3C0
:101040000580002807D1064B9A685B699A4202D056
:10105000FFF71AFF10BD62B6BFF36F8FFAE7C04605
:10106000F402002010B500280AD1EFF30580002813
:1010700007D1064B5A699B689A4202D0FFF704FFDA
:1010800010BD62B6BFF36F8FFAE7C046F4020020CE
:10109000EFF3108172B6054B9A68D37B013BD37393
:1010A000002902D162B6BFF36F8F7047F4020020AF
:1010B00070B5EFF3108672B6134DAB68DA7B013270
:1010C000DA73AC69114A944201D0002C00D1EC686B
:1010D0005A7BD20605D1DA897F2A02D9A269002A71
:1010E00005D0A34202D0200000F0A2F923006B61DA
:1010F000002E02D162B6BFF36F8FEFF3108072B68D
:10110000FFF7B0FF70BDC046F40200200C030020C2
:10111000024B034A9A61DA617047C046F40200202C
:101120000C03002070B5EFF3108572B61C4CA1685B
:10113000E3690A68CB1A581E834149685B420A601A
:1011400051601340E169A268002B05D1154B516035
:1011500013600A60E2610CE00E200E2610569E57C6
:10116000B04218D0864216DD5968136051600A609B
:101170005A60A6690B4B9E4201D0002E00D1E66852
:10118000A3689E4202D0300000F052F92800666148
:10119000FFF77AFE70BD8B42D8D01B68D4E7C046FB
:1011A000F40200200C030020F8B5030007000C0037
:1011B0000B4303D1FFF7B6FF0020F8BDEFF3108615
:1011C00072B6134D134BA8681860FFF7BDFEA868F0
:1011D00023003A001049183000F000FA0423AA68EE
:1011E0000400517B30000B435373FFF74DFEAB6897
:1011F0009A6A002AE0D18022DB6A12069342DBD190
:1012000000F091FF201AC343DB171840D5E7C04612
:10121000F402002018030020CF20000070B5040065
:101220000D00FFF7C1FF03002000621C01D1013552
:1012300009D00020834206D0181E03DB80231B0642
:10124000984200D3004870BDFFFFFF7F70B50400D7
:10125000EFF3108572B60426437B33420DD018306D
:1012600000F03BFF637B2000B3436373FFF726FE70
:1012700029000548FFF7E0FE70BD002DFCD162B6E5
:10128000BFF36F8FF8E7C04625030020014B986835
:101290007047C046F4020020F0B5037B85B004001F
:1012A0000393EFF31083019372B6019B029308231B
:1012B000427B1A4207D0019B002B02D162B6BFF3DA
:1012C0006F8F05B0F0BD1900114348B200285ADBFA
:1012D0006173A368002B02D0200000F0BAFE20004A
:1012E0002600183000F0F9FE5836A56DAE4201D048
:1012F000002D50D1334F0025BB689C4204D1EFF341
:1013000005856A1E9541EDB2BE692F4A964201D00D
:10131000002E00D1FE68B34202D0300000F088F801
:1013200020007E6100F097FD200000F0D3F8002D32
:1013300002D02648FFF798FDBB689C423AD1EFF3F4
:101340000583002B36D1237BDB070FD5019B002BB8
:1013500002D162B6BFF36F8F62B6BFF36F8F042303
:10136000181C02DFEFF3108372B602930298FFF7A6
:101370008BFD039BDB07A4D562B6BFF36F8F0423FD
:10138000181C02DF9DE77F210A401343200063738E
:1013900000F057FE9DE7280000F05BFE28001830A3
:1013A00000F09BFE2B0000229C3328001A60FFF700
:1013B00085FD9AE7019B002BDBD162B6BFF36F8FEF
:1013C000D7E7C046F40200200C03002010020020E2
:1013D0000121044B044AC01A044BC0104343D154AA
:1013E0007047C046B002002025030020ABAAAAAA7D
:1013F000C289030000207F2A11D80A4A10680028F9
:101400000DD00E21084A595612680020914206DB81
:101410005A7BD20603D10548181A431E984101236E
:1014200018407047280000201C030020D000002036
:1014300070B518240C4B05001E7C0C4B7443E4184B
:10144000200000F04AFE0022094B28009A55FFF7C1
:10145000CFFF002807D0074B20001A680649013A41
:10146000D31700F0BBF870BDF4020020B0020020DA
:101470002503002028000020D113000070B5EFF3F1
:10148000108572B6104A114B94681868A04207D1B3
:10149000FFF7CEFF002D02D162B6BFF36F8F70BD94
:1014A00000211960127C0A4B9B5C8B42F2D0200019
:1014B000FFF79EFF0028EDD0637BDB0602D1200002
:1014C000FFF76EFD2000E3E7F40200201803002080
:1014D00025030020EFF3108172B60C4A136A834291
:1014E00009D10433DB6F1362002902D162B6BFF366
:1014F0006F8F70471300002BF6D00433DA6F8242EF
:10150000F8D10430C26FDA67EEE7C046F40200207B
:101510000648074A10B5121A064900F06AFD064A45
:1015200006480749121A00F064FD10BD00000020B3
:10153000D0000020642500000000002000000020F2
:1015400064250000024B1868984200D100207047C3
:101550002C00002070B50600FFF7F4FF002810D023
:10156000026943693400F517121BAB41002B08DCFC
:1015700003D1802109068A4203D2D843C017104004
:1015800070BD0148FCE7C046FFFFFF7F002010B59B
:10159000034B1B68834201D1FFF790FA10BDC04690
:1015A0002003002030B500280ED00B4B5B6898421A
:1015B0000AD00168002907D00A694B6904694569A6
:1015C00012196B410A614B610368426813605A60EB
:1015D00000230360436030BD2C000020F0B5040000
:1015E00015001E0085B0531C02D1731C00D17CE095
:1015F000A160EFF31083039372B6002E26DBFFF792
:10160000C5FF00210090012040197141009AD317B5
:1016100012184B4136492261636108684968121803
:101620004B411E00150001230293FFF78BFF0700BB
:10163000304B9C465B680193002F1DD163462360AD
:10164000019B63601C6063465C6027E0284B186860
:10165000596802225242D317121A8B41521BB341CE
:101660001100002B04DC01D1002A01D1012100234B
:10167000636121610023D7E7386979692269636969
:10168000994202DC28D1904226D9801A99417B6880
:1016900038617961636027601C607C60FFF752FFEE
:1016A00084420FD1144B1B68002B0BD1029B002BE3
:1016B00002D1FFF76BFF00900098FFF74BFF00216E
:1016C000FFF7E6F9039B002B02D162B6BFF36F8FE1
:1016D0002800310005B0F0BD121A8B412261636110
:1016E000019B9F42AAD03F68A6E700250026EFE7AE
:1016F000C80200202C00002020030020F0B587B095
:10170000EFF3108372B601932F4B1860FFF71AFFA7
:101710002E4F04003A687B68029203932A4B9C4642
:101720001D6800280FD042690669EB179A4202DC57
:1017300024D1AE4222D91900226963692800121A05
:101740008B4122616361029803992A00EB171218FA
:101750004B4100243A607B60634620001C60FFF729
:10176000F9FE2100FFF794F9019BA34202D162B672
:10177000BFF36F8FFFF782FE07B0F0BDF31704963B
:101780000593049A059B02980399801859410023F8
:1017900000220E4D22616361286069602000FFF71E
:1017A00001FF019B002B02D162B6BFF36F8F2000B7
:1017B000A3689847EFF3108372B6034A0193136846
:1017C0009B1B1360A2E7C04620030020C802002034
:1017D00010B5EFF3108472B6FFF7D8FE0200064989
:1017E000C3170868496880185941002C02D162B6B5
:1017F000BFF36F8F10BDC046C802002010B502486D
:1018000000F0F7FA10BDC0461A25000010B5064CCE
:10181000064B9C4201D3002010BD2000A2686168E5
:1018200000F085FC1434F3E7D0000020D000002045
:101830000FB407B5054B04AA02CA1868019200F05C
:1018400007F803B008BC04B01847C04640230000A6
:10185000F0B5436893B003900893837815009B0715
:1018600000D4F8E0002301930E78002E6AD0252ED4
:101870000DD04B1C0993019B013301930399089BE5
:10188000F0B29847002800DADFE00999ECE74E78DB
:101890008B1C0993252EEED0002304211C00099AED
:1018A0000293079309921F2C2ED83000203810285D
:1018B0000AD8FEF7EBFB1D0909270909091E0909CA
:1018C000091B0925090918003300303B092B29D9C8
:1018D0002A2E32D108CD600622D4002B29DB20200D
:1018E0000793044305E001231C4302E002231C4349
:1018F0000C43099B01321E78002ED3D109922DE0B2
:101900000823F1E71023EFE77F2C1ED83300303B8C
:10191000092BDDD8600605D50A20029E7043C31846
:101920000293E6E70A20079E7043C318079320231B
:10193000DAE75B4207932823D6E72E2E05D1402312
:101940001C42D1D0019813B0F0BD6C2E2DD027D8F9
:10195000682E31D06A2E32D04C2E30D0029B002B14
:1019600003DA40239C4300230293202333431A00CD
:10197000653A022A01D9612B24D10722EB1D93433A
:1019800008331D00AB4F0292240753D5019A029BE6
:1019900016009C18B4424FD1079B029A9E1A82E10E
:1019A000742EA6D07A2EA4D0D8E780231C429BD0D8
:1019B00080208000044397E780235B00F6E7A023A4
:1019C0009B0091E730006338122800D9E3E0FEF76E
:1019D0005DFB0A46E2E2E2E246E2E2E2E2E2F3DD57
:1019E000E2E211E2AD0004CD0CAB1A7001230CAFA2
:1019F0000293C9E780CD002F00D18F4F0299630673
:101A000001D401214942380000F0AAFB0290BBE753
:101A100020200399089B9847002816DB013C029B75
:101A2000A342F5D3079A019B944663441B1B019381
:101A30000794ABE7079CF2E7019B0399FB1A985DBB
:101A4000089B984701360028A4DA039B9A78042360
:101A50001343039A937001235B42019372E72306B9
:101A60003FD5A30537D50722073595432F000CCF67
:101A700004920593102325009D43059B002B3ADA21
:101A80000499059A00244B429441049305948023C1
:101A9000DB001D43ADB20CAC0A230498059922006B
:101AA00000F069FB041B6B0665D501232A009A43ED
:101AB0001300029AA24200DCA4E0002E00D19CE0B8
:101AC0001022290011400B91154200D09CE0029A8F
:101AD0001D0006921EE02F0008CF0493DB1705932C
:101AE000C8E72F0008CFE205F7D5A20501D55BB204
:101AF000F3E71BB2F1E7049B059A1343CBD16306CE
:101B0000C9D5029B002BC6D111339C43029B2500F3
:101B10001C0006932A00494B1A400B921D4277D0B5
:101B2000069B0133069300230B9371E010239C4323
:101B3000063B9C46802322001A4006921C4242D05B
:101B400021008133FF3319401C4239D00722EB1D9D
:101B500093431F0003CB083703000B4346D12500F6
:101B600016339D43630644D5029B002B41D11733A6
:101B70009C432500029C10232A001A400B921D4210
:101B800056D0631C002E42D022003FE0102378265E
:101B90009C461C43CEE7782B04D110229B1B1A4392
:101BA0009446C7E725200399089B9847002800DA48
:101BB0004BE7019B023360E6082300269C46B9E709
:101BC0002F0001CFC8E72F008022210008CF52004C
:101BD000180011401442BFD0802221009200114011
:101BE00098B21442B8D00699D8B2B5E706239C4300
:101BF00025000CAC6346220052E711239D43029B53
:101C0000069387E71D00B6E71D00029A931C069312
:101C10002B072AD4EB0709D5079B069A0294934217
:101C200004DD9B1A1B190293079B0693069B10E089
:101C300006946FE75C2500005525000006040000AF
:101C400020200399089B9847002800DAFDE60A9BAC
:101C500001330A930A9A079B9342F1DC069A019B8F
:101C60009B1A0A9A9B18019306920B9B002B25D076
:101C700030200399089B9847002800DAE5E6019B8D
:101C8000002E12D101330193019E029B019A9B18F1
:101C90009B1BA34220DC2500002D25D13D00079B86
:101CA000069AA4199E1A019431E002330193F0B20E
:101CB0000399089B98470028E6DAC6E6174B1D42B1
:101CC000E2D02020AB0700D50B306D0500D52D20CC
:101CD000019B01330193EBE730200399089B013608
:101CE00098470028D1DAB0E60CAB013DE85C0399D7
:101CF000089B98470028CFDAA7E6019B20200133F4
:101D000001930399089B9847002800DA9DE6019A01
:101D1000A3199B1A002BF0DCB7E5C04606040000AF
:101D20007047C9004018408840087047F8B50D005A
:101D30000400FFF7F6FFFEF7FBF91F21091A8A00DE
:101D4000A218EB0010691F1D0633E719E318AEB2A5
:101D5000002808D101308840E1680143E160156145
:101D60003E801E80F8BDC1000431625A3A80D20024
:101D7000A2181880D6806652F4E70723F7B500272B
:101D8000043ACC1D89189C4399430B1BDE08046060
:101D9000A660E7603000009301912425FEF7C8F9A2
:101DA00020222D1A121A200039009200103000F063
:101DB000CFF90123AD000735ED086A001A436280B0
:101DC000711BEA00A0184B0027804380009BA5529E
:101DD000E218019B578019800123F600A61972882A
:101DE0002900134373802000FFF7A0FFF7BD0020F8
:101DF00070470FB407B504A901C90191FEF7FEF9B8
:101E000003B008BC04B01847704710B5FEF76AFE6F
:101E100010BD10B501000068FEF720FA10BD10B526
:101E2000FEF74CFAFEF76AFA10BD10B540B2FEF7A5
:101E300085FB10BD10B500210120FEF70FFA10BD83
:101E400010B5FEF7B1FBFEF709FFFFF761FBFEF7E8
:101E5000F5FBFEF743FF862040427047002802D181
:101E600062B6BFF36F8F7047BFF34F8F30BF62B65C
:101E7000BFF36F8F704710B5FEF708FC002010BD50
:101E800010B503695868002821D088421BD1086822
:101E90009C685860A14200D198600020086082428E
:101EA00006D05A680A609A685960002A00D1996081
:101EB000002010E0814206D10868206098688142C5
:101EC000EBD19C60E9E7040000680028F2D1002A09
:101ED000E7D11620404210BD30B503681360057984
:101EE0000468ED006419A34202D30220404230BDD1
:101EF0005C798C4201D00833F0E70020F7E710B599
:101F0000436810221B689C6920001040144202D1D3
:101F10001B780B7010BD01204042FBE710B54368F1
:101F2000002019680F234A684860042108241340E0
:101F3000980008405900214008430221DB080A406C
:101F40001343184310BD10B5036911CB11C1002014
:101F500010BD10B54368186800F014F810BDF8B54E
:101F60000E00170004001D00FEF7DEFD3900F00032
:101F7000FEF796F80130C3094006800E6362A06246
:101F8000E562F8BD202382691A42FCD101607047E6
:101F90007047002809D00123C268002051781942F7
:101FA00002D010784242504118407047EFF310833E
:101FB00072B6FEE710B5FFF7F9FF10B543690400EC
:101FC000002B06D100200123E26851780B435370A7
:101FD00010BD98470028F5D0C317C0185840FF28F7
:101FE00000DDFF20E3681870EDE710B500F0B0F8F1
:101FF00010BD10B500F0A3F810BD30B5826841697E
:1020000014000C43032325001D401C420FD103691B
:10201000C560013B59435218002B01DA002030BD46
:10202000C168013B11604169C260521AF4E7162091
:102030004042F4E710B5EFF3108372B6FFF714FFD8
:10204000F9E70368426813605A6000230360436045
:10205000704710B50400FFF7F4FF0222637B93433F
:1020600063730023A36010BD10B5EFF3108472B644
:10207000FEF724FF002C02D162B6BFF36F8F10BDB4
:1020800070B50400EFF3108572B62822437B13402D
:10209000020000206C3216781070864207D0814210
:1020A00005D0002D02D162B6BFF36F8F70BD002B3B
:1020B000F7D1A368002B02D02000FFF7CAFF04224B
:1020C000637B200093436373FEF7F8FEE9E710B5E6
:1020D00001211838FFF7D4FF10BD70B50400EFF3ED
:1020E000108572B60368002B1AD0FFF72BFA060092
:1020F0002000FFF757FA802300221B06226163614C
:10210000A64206D1FFF742FAFFF724FA0021FEF7B4
:10211000BFFC0020002D02D162B6BFF36F8F70BDEF
:1021200016204042F6E710B5FFF752FB10BD030042
:1021300010B50C33C3600361FFF71FFE10BD002311
:1021400010B59A4200D110BDCC5CC4540133F8E7FD
:1021500003008218934200D1704719700133F9E7E8
:10216000030041188B4202D01A78002A01D1181AB4
:1021700070470133F6E7F0B50D003721C91A8FB06B
:10218000C9B20D911F2104000B400C930C99E3B2CE
:10219000082955D0102900D164E0E90760080843F8
:1021A000690806900791A008A9070843A9080890A4
:1021B0000991089E099F06980799801979410E0791
:1021C000B446060900966646009F37430E090097FD
:1021D0000196009E019F801979410E06B44667461C
:1021E000060A3E4302960E0A0396029E039F80193A
:1021F00079410E04B4466746060C3E4304960E0C25
:102200000596049E059F8019794100260A910B9638
:102210000A9E0B9F801979414E07CD080521C408FD
:102220003443614349005B1ADBB2092B12D9012008
:1022300000210A3B24184D41DBB21DE00200A5E756
:1022400007210B4069078C466646E008E90806430B
:1022500034000D00303313702300501C2B43EDD19C
:102260000FB0F0BD0F210B4029078C4666462009B0
:102270002909064334000D00092BEBD90D99CB1821
:10228000DBB2E7E70148006870470000D002002099
:102290008D0D0000000000000D180000000000007F
:1022A00000000000C822000000000000E82200003A
:1022B000D906000000000000FD0900000000000039
:1022C000B506000000000000F424000044230000D4
:1022D00008230000CC000020E402002005080000D4
:1022E0000000000000000000072500001C00002086
:1022F0002C230000CE00002014000020BD090000A7
:102300000000000000000000290800002D07000068
:102310003D070000510700005D070000690700004D
:1023200075070000811E0000F9070000FF1E000075
:10233000531F00001D1F000005090000471F00007B
:1023400004000020FFFFFF035023000001000000F5
:1023500058230000020000001600000002000000E8
:102360000000002014000000020000000000000037
:102370009022000090220000B8220000C02200003D
:10238000C8220000C82200004F4E004F4646004CB5
:1023900045442073746174653A2025730A007230D5
:1023A0002F61313A20203078253038782020723162
:1023B0002F61323A20203078253038782020723250
:1023C0002F61333A20203078253038780A00723374
:1023D0002F61343A2020307825303878207231321D
:1023E0002F69703A202030782530387820723134C7
:1023F0002F6C723A20203078253038780A00207807
:102400007073723A20203078253038780A0046619F
:10241000756C74696E6720696E7374727563746924
:102420006F6E206164647265737320287231352F7A
:102430007063293A203078253038780A00556E6864
:10244000616E646C6564204952516E3A2025640ABD
:1024500000526573657276656420457863657074B3
:10246000696F6E20280053707572696F75732069EB
:102470006E74657272757074202849525120005331
:102480005053454C20696E20746872656164206DFC
:102490006F646520646F6573206E6F7420696E646D
:1024A0006963617465205053500A002A2A2A2A2A37
:1024B0002048415244204641554C54202A2A2A2A79
:1024C0002A0A00415243485F4558434550542077FB
:1024D00069746820726561736F6E2025780A0A003E
:1024E0002A2A2A2A2A20257320256429202A2A2AF2
:1024F0002A2A0A006770696F403430303233303036
:1025000030000002068286756172744034303033C8
:1025100034303030006D61696E002A2A2A20426F03
:102520006F74696E67205A6570687972204F532006
:102530006275696C642076342E322E302D32353639
:10254000312D67663563633564383537633466200B
:102550002A2A2A0A00286E756C6C29002A666C6F7C
:1025600061742A00EF1D000000000000771E0000CB
:10257000000000000000000000C201000001030094
:1025800000400340006CDC024823000014000000FF
:102590002C0000202C00002000000000351E000050
:1025A00000000000351E000000000000351E000085
:1025B00000000000351E000000000000351E000075
:1025C000C82200009D08000000000000351E000029
:1025D00000000000351E000000000000351E000055
:1025E00000000000351E000000000000351E000045
:1025F00000000000351E000000000000351E000035
:1026000000000000351E000000000000351E000024
:1026100000000000351E000000000000610A0000FC
:1026200000000000351E000000000000351E000004
:082630000000000015E015E0B8
:020000044E02AA
:10000000FFFFFFFF0000000000000000FFFFFFFFF8
:10001000FFFFFFFFFFFFFFFFAAAAAAAA0700000039
:10002000FFFFFFFFFFFFFFFF00000000FFFFFFFFDC
:1000300000000000000000000000000000000000C0
:1000400000000000000000000000000000000000B0
:1000500000000000000000000000000000000000A0
:100060000000000000000000000000000000000090
:100740000000000000000000000000009B37AA1716
:100750000000000000000000000000000000000099
:100760000000000000000000000000000000000089
:100770000000000000000000000000000000000079
:100780000000000000000000000000000000000069
:100790000000000000000000000000000000000059
:1007A0000000000000000000000000000000000049
:1007B0000000000000000000000000000000000039
:1007C0000000000000000000000000000C0ED71523
:1007D0005AA500000000000000000000000000001A
:1007E0000000000000000000000000000000000009
:1007F000000000000000000000000000687B0647C9
:00000001FF
